{
  "contractName": "Wallet",
  "abi": [
    {
      "inputs": [
        {
          "internalType": "address[]",
          "name": "_owners",
          "type": "address[]"
        },
        {
          "internalType": "uint256",
          "name": "_limit",
          "type": "uint256"
        }
      ],
      "stateMutability": "nonpayable",
      "type": "constructor"
    },
    {
      "anonymous": false,
      "inputs": [
        {
          "indexed": false,
          "internalType": "uint256",
          "name": "_id",
          "type": "uint256"
        },
        {
          "indexed": false,
          "internalType": "uint256",
          "name": "_approvals",
          "type": "uint256"
        },
        {
          "indexed": false,
          "internalType": "address",
          "name": "_approver",
          "type": "address"
        }
      ],
      "name": "ApprovalRecieved",
      "type": "event"
    },
    {
      "anonymous": false,
      "inputs": [
        {
          "indexed": false,
          "internalType": "uint256",
          "name": "_id",
          "type": "uint256"
        }
      ],
      "name": "TransferApproved",
      "type": "event"
    },
    {
      "anonymous": false,
      "inputs": [
        {
          "indexed": false,
          "internalType": "uint256",
          "name": "_id",
          "type": "uint256"
        },
        {
          "indexed": false,
          "internalType": "uint256",
          "name": "_amount",
          "type": "uint256"
        },
        {
          "indexed": false,
          "internalType": "address",
          "name": "_initiator",
          "type": "address"
        },
        {
          "indexed": false,
          "internalType": "address",
          "name": "_receiver",
          "type": "address"
        }
      ],
      "name": "TransferRequestCreated",
      "type": "event"
    },
    {
      "inputs": [
        {
          "internalType": "uint256",
          "name": "",
          "type": "uint256"
        }
      ],
      "name": "owners",
      "outputs": [
        {
          "internalType": "address",
          "name": "",
          "type": "address"
        }
      ],
      "stateMutability": "view",
      "type": "function"
    },
    {
      "inputs": [],
      "name": "deposit",
      "outputs": [],
      "stateMutability": "payable",
      "type": "function"
    },
    {
      "inputs": [
        {
          "internalType": "uint256",
          "name": "_amount",
          "type": "uint256"
        },
        {
          "internalType": "address payable",
          "name": "_receiver",
          "type": "address"
        }
      ],
      "name": "createTransfer",
      "outputs": [],
      "stateMutability": "nonpayable",
      "type": "function"
    },
    {
      "inputs": [
        {
          "internalType": "uint256",
          "name": "_id",
          "type": "uint256"
        }
      ],
      "name": "approve",
      "outputs": [],
      "stateMutability": "nonpayable",
      "type": "function"
    },
    {
      "inputs": [],
      "name": "getTransferRequests",
      "outputs": [
        {
          "components": [
            {
              "internalType": "uint256",
              "name": "amount",
              "type": "uint256"
            },
            {
              "internalType": "address payable",
              "name": "reciever",
              "type": "address"
            },
            {
              "internalType": "uint256",
              "name": "approvals",
              "type": "uint256"
            },
            {
              "internalType": "bool",
              "name": "hasBeenSent",
              "type": "bool"
            },
            {
              "internalType": "uint256",
              "name": "id",
              "type": "uint256"
            }
          ],
          "internalType": "struct Wallet.Transfer[]",
          "name": "",
          "type": "tuple[]"
        }
      ],
      "stateMutability": "view",
      "type": "function"
    }
  ],
  "bytecode": "0x60806040523480156200001157600080fd5b50604051620010f8380380620010f88339818101604052810190620000379190620001dd565b81600090805190602001906200004f9291906200005f565b5080600181905550505062000377565b828054828255906000526020600020908101928215620000db579160200282015b82811115620000da5782518260006101000a81548173ffffffffffffffffffffffffffffffffffffffff021916908373ffffffffffffffffffffffffffffffffffffffff1602179055509160200191906001019062000080565b5b509050620000ea9190620000ee565b5090565b5b8082111562000109576000816000905550600101620000ef565b5090565b6000620001246200011e8462000260565b62000237565b905080838252602082019050828560208602820111156200014457600080fd5b60005b858110156200017857816200015d888262000182565b84526020840193506020830192505060018101905062000147565b5050509392505050565b600081519050620001938162000343565b92915050565b600082601f830112620001ab57600080fd5b8151620001bd8482602086016200010d565b91505092915050565b600081519050620001d7816200035d565b92915050565b60008060408385031215620001f157600080fd5b600083015167ffffffffffffffff8111156200020c57600080fd5b6200021a8582860162000199565b92505060206200022d85828601620001c6565b9150509250929050565b60006200024362000256565b9050620002518282620002cd565b919050565b6000604051905090565b600067ffffffffffffffff8211156200027e576200027d62000303565b5b602082029050602081019050919050565b60006200029c82620002a3565b9050919050565b600073ffffffffffffffffffffffffffffffffffffffff82169050919050565b6000819050919050565b620002d88262000332565b810181811067ffffffffffffffff82111715620002fa57620002f962000303565b5b80604052505050565b7f4e487b7100000000000000000000000000000000000000000000000000000000600052604160045260246000fd5b6000601f19601f8301169050919050565b6200034e816200028f565b81146200035a57600080fd5b50565b6200036881620002c3565b81146200037457600080fd5b50565b610d7180620003876000396000f3fe60806040526004361061004a5760003560e01c8063025e7c271461004f5780634c12fa471461008c578063a04ef145146100b5578063b759f954146100e0578063d0e30db014610109575b600080fd5b34801561005b57600080fd5b506100766004803603810190610071919061095b565b610113565b6040516100839190610af8565b60405180910390f35b34801561009857600080fd5b506100b360048036038101906100ae9190610984565b610152565b005b3480156100c157600080fd5b506100ca610361565b6040516100d79190610b13565b60405180910390f35b3480156100ec57600080fd5b506101076004803603810190610102919061095b565b61044f565b005b61011161092f565b005b6000818154811061012357600080fd5b906000526020600020016000915054906101000a900473ffffffffffffffffffffffffffffffffffffffff1681565b6000805b600080549050811015610213573373ffffffffffffffffffffffffffffffffffffffff16600082815481106101b4577f4e487b7100000000000000000000000000000000000000000000000000000000600052603260045260246000fd5b9060005260206000200160009054906101000a900473ffffffffffffffffffffffffffffffffffffffff1673ffffffffffffffffffffffffffffffffffffffff16141561020057600191505b808061020b90610c95565b915050610156565b50600190508061022257600080fd5b7f099c4ec4ecfc26f7c8b27aeee5443f92120fa2c4e91ba6020369ae71a4d4427860028054905084338560405161025c9493929190610b87565b60405180910390a160026040518060a001604052808581526020018473ffffffffffffffffffffffffffffffffffffffff1681526020016000815260200160001515815260200160028054905081525090806001815401808255809150506001900390600052602060002090600502016000909190919091506000820151816000015560208201518160010160006101000a81548173ffffffffffffffffffffffffffffffffffffffff021916908373ffffffffffffffffffffffffffffffffffffffff1602179055506040820151816002015560608201518160030160006101000a81548160ff021916908315150217905550608082015181600401555050505050565b60606002805480602002602001604051908101604052809291908181526020016000905b8282101561044657838290600052602060002090600502016040518060a0016040529081600082015481526020016001820160009054906101000a900473ffffffffffffffffffffffffffffffffffffffff1673ffffffffffffffffffffffffffffffffffffffff1673ffffffffffffffffffffffffffffffffffffffff168152602001600282015481526020016003820160009054906101000a900460ff1615151515815260200160048201548152505081526020019060010190610385565b50505050905090565b6000805b600080549050811015610510573373ffffffffffffffffffffffffffffffffffffffff16600082815481106104b1577f4e487b7100000000000000000000000000000000000000000000000000000000600052603260045260246000fd5b9060005260206000200160009054906101000a900473ffffffffffffffffffffffffffffffffffffffff1673ffffffffffffffffffffffffffffffffffffffff1614156104fd57600191505b808061050890610c95565b915050610453565b50600190508061051f57600080fd5b60001515600360003373ffffffffffffffffffffffffffffffffffffffff1673ffffffffffffffffffffffffffffffffffffffff168152602001908152602001600020600084815260200190815260200160002060009054906101000a900460ff1615151461058d57600080fd5b60001515600283815481106105cb577f4e487b7100000000000000000000000000000000000000000000000000000000600052603260045260246000fd5b906000526020600020906005020160030160009054906101000a900460ff161515146105f657600080fd5b7faf7140a50d53d80db2d043fb8f79454a19799336e888a4036bc8c487901fb9158260028481548110610652577f4e487b7100000000000000000000000000000000000000000000000000000000600052603260045260246000fd5b9060005260206000209060050201600201543360405161067493929190610b50565b60405180910390a160011515600360003373ffffffffffffffffffffffffffffffffffffffff1673ffffffffffffffffffffffffffffffffffffffff168152602001908152602001600020600084815260200190815260200160002060009054906101000a9050505060028281548110610717577f4e487b7100000000000000000000000000000000000000000000000000000000600052603260045260246000fd5b9060005260206000209060050201600201600081548092919061073990610c95565b91905055506001546002838154811061077b577f4e487b7100000000000000000000000000000000000000000000000000000000600052603260045260246000fd5b9060005260206000209060050201600201541061092b576001600283815481106107ce577f4e487b7100000000000000000000000000000000000000000000000000000000600052603260045260246000fd5b906000526020600020906005020160030160006101000a81548160ff02191690831515021790555060028281548110610830577f4e487b7100000000000000000000000000000000000000000000000000000000600052603260045260246000fd5b906000526020600020906005020160010160009054906101000a900473ffffffffffffffffffffffffffffffffffffffff1673ffffffffffffffffffffffffffffffffffffffff166108fc600284815481106108b5577f4e487b7100000000000000000000000000000000000000000000000000000000600052603260045260246000fd5b9060005260206000209060050201600001549081150290604051600060405180830381858888f193505050501580156108f2573d6000803e3d6000fd5b507fd9bbf1d8bef570b7e92ef1ba025425fc15915ae01f3d3be144cdc8be05442eb5826040516109229190610b35565b60405180910390a15b5050565b565b60008135905061094081610d0d565b92915050565b60008135905061095581610d24565b92915050565b60006020828403121561096d57600080fd5b600061097b84828501610946565b91505092915050565b6000806040838503121561099757600080fd5b60006109a585828601610946565b92505060206109b685828601610931565b9150509250929050565b60006109cc8383610a72565b60a08301905092915050565b6109e181610c5f565b82525050565b6109f081610c17565b82525050565b6109ff81610c05565b82525050565b6000610a1082610bdc565b610a1a8185610bf4565b9350610a2583610bcc565b8060005b83811015610a56578151610a3d88826109c0565b9750610a4883610be7565b925050600181019050610a29565b5085935050505092915050565b610a6c81610c29565b82525050565b60a082016000820151610a886000850182610ada565b506020820151610a9b60208501826109e7565b506040820151610aae6040850182610ada565b506060820151610ac16060850182610a63565b506080820151610ad46080850182610ada565b50505050565b610ae381610c55565b82525050565b610af281610c55565b82525050565b6000602082019050610b0d60008301846109f6565b92915050565b60006020820190508181036000830152610b2d8184610a05565b905092915050565b6000602082019050610b4a6000830184610ae9565b92915050565b6000606082019050610b656000830186610ae9565b610b726020830185610ae9565b610b7f60408301846109f6565b949350505050565b6000608082019050610b9c6000830187610ae9565b610ba96020830186610ae9565b610bb660408301856109f6565b610bc360608301846109d8565b95945050505050565b6000819050602082019050919050565b600081519050919050565b6000602082019050919050565b600082825260208201905092915050565b6000610c1082610c35565b9050919050565b6000610c2282610c35565b9050919050565b60008115159050919050565b600073ffffffffffffffffffffffffffffffffffffffff82169050919050565b6000819050919050565b6000610c6a82610c71565b9050919050565b6000610c7c82610c83565b9050919050565b6000610c8e82610c35565b9050919050565b6000610ca082610c55565b91507fffffffffffffffffffffffffffffffffffffffffffffffffffffffffffffffff821415610cd357610cd2610cde565b5b600182019050919050565b7f4e487b7100000000000000000000000000000000000000000000000000000000600052601160045260246000fd5b610d1681610c17565b8114610d2157600080fd5b50565b610d2d81610c55565b8114610d3857600080fd5b5056fea2646970667358221220809d19adcfe4ad8db16a5957cfb6221b2fb722b7733826bcd1fdeeb8308652c864736f6c63430008030033",
  "immutableReferences": {},
  "source": "pragma solidity 0.8.3;\n\ncontract Wallet{\n\n    address[] public owners;\n    uint limit;\n\n    struct Transfer {\n        uint amount;\n        address payable reciever;\n        uint approvals;\n        bool hasBeenSent;\n        uint id;\n    }\n\n    Transfer[] transferRequests;\n\n    event ApprovalRecieved(uint _id, uint _approvals, address _approver);\n    event TransferRequestCreated(uint _id, uint _amount, address _initiator, address _receiver);\n    event TransferApproved(uint _id);\n\n    mapping(address => mapping(uint => bool))approvals;\n\n    modifier onlyOwners(){\n        bool owner = false;\n        for(uint i = 0; i < owners.length; i++){\n            if(owners[i]== msg.sender){\n                owner = true;\n            }\n        }\n        require (owner = true);\n        _;\n    }\n\n    constructor(address[] memory _owners, uint _limit){\n        owners = _owners;\n        limit = _limit;\n    }\n\n    function deposit()public payable{}\n\n    function createTransfer(uint _amount, address payable _receiver) public onlyOwners{\n        emit TransferRequestCreated(transferRequests.length, _amount, msg.sender, _receiver);\n        transferRequests.push(Transfer(_amount, _receiver, 0, false, transferRequests.length));\n    }\n\n    function approve(uint _id) public onlyOwners {\n        //owner should not be able to approve twice;\n        require (approvals[msg.sender][_id] == false);\n        //owner should not be able to approve a tx that has already been sent;\n        require (transferRequests[_id].hasBeenSent == false);\n\n        emit ApprovalRecieved(_id, transferRequests[_id].approvals, msg.sender);\n\n        approvals[msg.sender][_id] == true;\n        transferRequests[_id].approvals++;\n        //condition\n        if(transferRequests[_id].approvals >= limit){\n            transferRequests[_id].hasBeenSent = true;\n            transferRequests[_id].reciever.transfer(transferRequests[_id].amount);\n            emit TransferApproved(_id);\n        }\n    }\n\n    function getTransferRequests() public view returns(Transfer[] memory){\n        return transferRequests;\n    }\n\n    \n\n}",
  "sourcePath": "/Users/OllieFrancis/Documents/Ethereum/wallet/contracts/wallet.sol",
  "compiler": {
    "name": "solc",
    "version": "0.8.3+commit.8d00100c.Emscripten.clang"
  },
  "schemaVersion": "3.3.4",
  "updatedAt": "2021-03-30T13:52:50.707Z",
  "devdoc": {
    "kind": "dev",
    "methods": {},
    "version": 1
  },
  "userdoc": {
    "kind": "user",
    "methods": {},
    "version": 1
  }
}